{
  "contractName": "Insurance",
  "abi": [
    {
      "constant": true,
      "inputs": [],
      "name": "paymentPeriod",
      "outputs": [
        {
          "name": "",
          "type": "uint256"
        }
      ],
      "payable": false,
      "stateMutability": "view",
      "type": "function",
      "signature": "0x10b0624a"
    },
    {
      "constant": true,
      "inputs": [
        {
          "name": "",
          "type": "address"
        }
      ],
      "name": "clientAddress",
      "outputs": [
        {
          "name": "verifiedTrue",
          "type": "bool"
        },
        {
          "name": "policyValid",
          "type": "bool"
        },
        {
          "name": "lastPayment",
          "type": "uint256"
        },
        {
          "name": "billNumber",
          "type": "uint256"
        },
        {
          "name": "amount",
          "type": "uint256"
        }
      ],
      "payable": false,
      "stateMutability": "view",
      "type": "function",
      "signature": "0xb4b6e881"
    },
    {
      "constant": true,
      "inputs": [],
      "name": "healthProvider",
      "outputs": [
        {
          "name": "",
          "type": "address"
        }
      ],
      "payable": false,
      "stateMutability": "view",
      "type": "function",
      "signature": "0xbd25ec2e"
    },
    {
      "payable": true,
      "stateMutability": "payable",
      "type": "fallback"
    },
    {
      "anonymous": false,
      "inputs": [
        {
          "indexed": false,
          "name": "patient",
          "type": "address"
        },
        {
          "indexed": false,
          "name": "insuranceStatus",
          "type": "string"
        },
        {
          "indexed": false,
          "name": "premium",
          "type": "uint256"
        }
      ],
      "name": "underwrite",
      "type": "event",
      "signature": "0x3fbb671e54115db290d1014bb1359a9baa9e3127b3d8bcc0b4dc979fb8732548"
    },
    {
      "anonymous": false,
      "inputs": [
        {
          "indexed": false,
          "name": "hospital",
          "type": "address"
        },
        {
          "indexed": false,
          "name": "hospitalStatus",
          "type": "string"
        },
        {
          "indexed": false,
          "name": "billAmount",
          "type": "uint256"
        },
        {
          "indexed": false,
          "name": "billAddress",
          "type": "uint256"
        }
      ],
      "name": "claim",
      "type": "event",
      "signature": "0x7c7eed527dc21919cd76e6aa88ce51f1e933ee0d3c4f59869da1b14b3440572c"
    },
    {
      "anonymous": false,
      "inputs": [
        {
          "indexed": false,
          "name": "admin",
          "type": "address"
        },
        {
          "indexed": false,
          "name": "claimStatus",
          "type": "string"
        },
        {
          "indexed": false,
          "name": "claimAmount",
          "type": "uint256"
        }
      ],
      "name": "reimburse",
      "type": "event",
      "signature": "0xadefae3561edcc07e6fdd26936762bb7bc022cf817ce923acd9c126edb08d145"
    },
    {
      "constant": false,
      "inputs": [],
      "name": "underwriteProcess",
      "outputs": [
        {
          "name": "",
          "type": "bool"
        }
      ],
      "payable": true,
      "stateMutability": "payable",
      "type": "function",
      "signature": "0xf603ce62"
    },
    {
      "constant": false,
      "inputs": [
        {
          "name": "patient",
          "type": "address"
        },
        {
          "name": "number",
          "type": "uint256"
        },
        {
          "name": "bill",
          "type": "uint256"
        }
      ],
      "name": "claimProcess",
      "outputs": [
        {
          "name": "",
          "type": "bool"
        }
      ],
      "payable": false,
      "stateMutability": "nonpayable",
      "type": "function",
      "signature": "0x15b94085"
    },
    {
      "constant": false,
      "inputs": [
        {
          "name": "patient",
          "type": "address"
        }
      ],
      "name": "reimburseProcess",
      "outputs": [
        {
          "name": "",
          "type": "bool"
        }
      ],
      "payable": true,
      "stateMutability": "payable",
      "type": "function",
      "signature": "0xa4d0c83d"
    }
  ],
  "bytecode": "0x60806040526001805533600260006101000a81548173ffffffffffffffffffffffffffffffffffffffff021916908373ffffffffffffffffffffffffffffffffffffffff16021790555034801561005557600080fd5b50610827806100656000396000f3fe608060405260043610610078576000357c0100000000000000000000000000000000000000000000000000000000900463ffffffff16806310b0624a1461007a57806315b94085146100a5578063a4d0c83d14610122578063b4b6e8811461017e578063bd25ec2e14610207578063f603ce621461025e575b005b34801561008657600080fd5b5061008f610280565b6040518082815260200191505060405180910390f35b3480156100b157600080fd5b50610108600480360360608110156100c857600080fd5b81019080803573ffffffffffffffffffffffffffffffffffffffff1690602001909291908035906020019092919080359060200190929190505050610286565b604051808215151515815260200191505060405180910390f35b6101646004803603602081101561013857600080fd5b81019080803573ffffffffffffffffffffffffffffffffffffffff169060200190929190505050610446565b604051808215151515815260200191505060405180910390f35b34801561018a57600080fd5b506101cd600480360360208110156101a157600080fd5b81019080803573ffffffffffffffffffffffffffffffffffffffff16906020019092919050505061065a565b6040518086151515158152602001851515151581526020018481526020018381526020018281526020019550505050505060405180910390f35b34801561021357600080fd5b5061021c6106aa565b604051808273ffffffffffffffffffffffffffffffffffffffff1673ffffffffffffffffffffffffffffffffffffffff16815260200191505060405180910390f35b6102666106d0565b604051808215151515815260200191505060405180910390f35b60015481565b6000600260009054906101000a900473ffffffffffffffffffffffffffffffffffffffff1673ffffffffffffffffffffffffffffffffffffffff163373ffffffffffffffffffffffffffffffffffffffff161415156102e457600080fd5b60008060008673ffffffffffffffffffffffffffffffffffffffff1673ffffffffffffffffffffffffffffffffffffffff16815260200190815260200160002090508060000160019054906101000a900460ff16801561034b575042600154826001015401105b1561043d5783816002018190555082816003018190555060018160000160006101000a81548160ff0219169083151502179055507f7c7eed527dc21919cd76e6aa88ce51f1e933ee0d3c4f59869da1b14b3440572c3382600301548360020154604051808473ffffffffffffffffffffffffffffffffffffffff1673ffffffffffffffffffffffffffffffffffffffff168152602001806020018481526020018381526020018281038252600d8152602001807f42696c6c2055706c6f616465640000000000000000000000000000000000000081525060200194505050505060405180910390a1600191505061043f565b505b9392505050565b6000600260009054906101000a900473ffffffffffffffffffffffffffffffffffffffff1673ffffffffffffffffffffffffffffffffffffffff163373ffffffffffffffffffffffffffffffffffffffff161415156104a457600080fd5b60008060008473ffffffffffffffffffffffffffffffffffffffff1673ffffffffffffffffffffffffffffffffffffffff16815260200190815260200160002090508060000160019054906101000a900460ff16801561051257508060000160009054906101000a900460ff165b1561065357600260009054906101000a900473ffffffffffffffffffffffffffffffffffffffff1673ffffffffffffffffffffffffffffffffffffffff166108fc82600301549081150290604051600060405180830381858888f19350505050158015610583573d6000803e3d6000fd5b5060008160000160006101000a81548160ff0219169083151502179055507fadefae3561edcc07e6fdd26936762bb7bc022cf817ce923acd9c126edb08d145338260030154604051808373ffffffffffffffffffffffffffffffffffffffff1673ffffffffffffffffffffffffffffffffffffffff168152602001806020018381526020018281038252600c8152602001807f42696c6c20536574746c65640000000000000000000000000000000000000000815250602001935050505060405180910390a16001915050610655565b505b919050565b60006020528060005260406000206000915090508060000160009054906101000a900460ff16908060000160019054906101000a900460ff16908060010154908060020154908060030154905085565b600260009054906101000a900473ffffffffffffffffffffffffffffffffffffffff1681565b6000662386f26fc10000341115156106e757600080fd5b60008060003373ffffffffffffffffffffffffffffffffffffffff1673ffffffffffffffffffffffffffffffffffffffff168152602001908152602001600020905042816001018190555060018160000160016101000a81548160ff0219169083151502179055507f3fbb671e54115db290d1014bb1359a9baa9e3127b3d8bcc0b4dc979fb87325483334604051808373ffffffffffffffffffffffffffffffffffffffff1673ffffffffffffffffffffffffffffffffffffffff16815260200180602001838152602001828103825260138152602001807f506f6c69637920556e6465727772697474656e00000000000000000000000000815250602001935050505060405180910390a160019150509056fea165627a7a72305820792e1f4c699fdce41eb862e1c459c150fcc7881e4a64d6292769274ec3ce37450029",
  "source": "pragma solidity ^0.5.0;\r\n\r\ncontract Insurance {               // contract name\r\n\r\n  struct Customer {               // stores patient data\r\n    bool verifiedTrue;\r\n    bool policyValid;\r\n    uint256 lastPayment;\r\n    uint256 billNumber;\r\n    uint256 amount;\r\n  }\r\n  mapping (address => Customer) public clientAddress;         // maps patient address to struct\r\n  uint256 public paymentPeriod = 1 seconds;                   // maturity period\r\n  address payable public healthProvider = msg.sender;         // hospital public key\r\n\r\n  modifier restricted {                                       // restricted to hospital admin\r\n    require (msg.sender == healthProvider);\r\n    _;\r\n  }\r\n\r\n  event underwrite (address patient, string insuranceStatus, uint256 premium);                          // confirms insurance sold\r\n  event claim (address hospital, string hospitalStatus, uint256 billAmount, uint256 billAddress);       // confirms logging of bill\r\n  event reimburse (address admin, string claimStatus, uint256 claimAmount);                             // confirms reimbursement\r\n\r\n  function underwriteProcess() public payable returns(bool) {           // underwrites and accepts the policy\r\n    require (msg.value > 0.01 ether);                                         // checks premium amount\r\n    Customer storage customer = clientAddress[msg.sender];                    // maps patient to struct\r\n    customer.lastPayment = now;                                               // stores current time\r\n    customer.policyValid = true;                                              // marked policy valid\r\n    emit underwrite(msg.sender, \"Policy Underwritten\", msg.value);            // logs event underwrite\r\n    return true;\r\n  }\r\n\r\n  function claimProcess(address patient, uint number, uint bill) public restricted returns(bool) {      // logs patient bill data to blockchain\r\n    Customer storage customer = clientAddress[patient];\r\n    if (customer.policyValid && customer.lastPayment + paymentPeriod < now ) {                                // checks if policy is valid and matured\r\n      customer.billNumber = number;                                                                           // stores bill number\r\n      customer.amount = bill;                                                                                 // stores bill amount\r\n      customer.verifiedTrue = true;                                                                           // marks policy valid\r\n      emit claim(msg.sender, \"Bill Uploaded\", customer.amount, customer.billNumber);                          // logs event claim\r\n      return true;\r\n    }\r\n  }\r\n\r\n  function reimburseProcess(address patient) public restricted payable returns(bool) {  // reimburse insurance amount to hospital\r\n    Customer storage customer = clientAddress[patient];\r\n    if (customer.policyValid && customer.verifiedTrue) {                                        // checks if policy is valid and claim is verified\r\n      healthProvider.transfer(customer.amount);                                                 // transfer bill amount\r\n      customer.verifiedTrue = false;                                                            // flags bill as claimed\r\n      emit reimburse(msg.sender, \"Bill Settled\", customer.amount);                              // logs event reimburse\r\n      return true;\r\n    }\r\n  }\r\n\r\n  function () external payable {      // fallback function\r\n  }\r\n}\r\n",
  "sourcePath": "F:/conduent/prototype/contracts/Insurance.sol",
  "compiler": {
    "name": "solc",
    "version": "0.5.0+commit.1d4f565a.Emscripten.clang"
  },
  "schemaVersion": "3.0.2",
  "updatedAt": "2019-06-23T02:04:46.635Z",
  "devdoc": {
    "methods": {}
  },
  "userdoc": {
    "methods": {}
  }
}